:100000000235D702003AC2A4123FDFD2A4023FE673
:10001000C2AF2202004243C780023F6E123A7E0204
:100020003ACB22023B18AB07AA06EB1BAE027001CB
:100030001A4E6005123F8C80F1223202340153EFD8
:10004000FE323202005E53EFFD3253EFFB32D2AF8D
:01005000228D
:0300530002003E6A
:10005B00020046C0E0C083C082E59A30E108539AA3
:10006B00FD90038DE4F0E59A30E003539AFED082C5
:05007B00D083D0E0324B
:0300830002004A2E
:03008B00023F2A07
:10009300023F4C020468E86480F8E933E8336011F6
:1000A3000460F0ED33EC337009E8FCE9FDEAFEEBA4
:1000B300FF220460DED3EB9FEA9EE99DE8C2E78C52
:1000C300F0C2F795F0400CE8CCF8E9CDF9EACEFAA6
:1000D300EBCFFB12043385D0F05804700320D5B363
:1000E300E80470075002B2D502047292D5EC0460A2
:1000F300F7E4CCC0E0C398F8603B94186008400D67
:10010300D0E0FB02044AE4FBFAC9FC8028E830E4AF
:1001130006E4C9FBE4CAFCE830E305E4C9CACBFC46
:10012300E854076010F8C3E913F9EA13FAEB13FB79
:10013300EC13FCD8F130F52FC3E49CFCEF9BFFEEEE
:100143009AFEED99FDD0E0FBEF4E4D4C701222DB91
:100153000302046FEC2CFCEF33FFEE33FEED33FDB3
:10016300ED30E7EB02044AEF2BFFEE3AFEED39FDEB
:10017300D0E0FB50130BBB0003020472ED13FDEE42
:1001830013FEEF13FFEC13FC02044AEC4D6011E87D
:10019300497017ED33EC3304600DE4FCFFFEFD22E0
:1001A300E933E8330470F802046812043358046036
:1001B30009E4CC2481500628500902047228400324
:1001C30002046FC0E0EB4A7044B98006D0E0FB0242
:1001D300045EEF4E701CBD8008EBFFEAFEE9FD8074
:1001E300EBE98DF0A4FEE5F0020277E9CDF9EAFE32
:1001F300EBFFEF89F0A4FCE5F0CE89F0A42EFFE439
:1002030035F0CD89F0A42DFEE435F08067EF4E7014
:1002130005BD80D780C3EF8BF0A4ACF0EE8BF0A4C8
:100223002CFCE435F0F8EF8AF0A42CE5F038FCE47C
:1002330033CB8DF0A42CFCE5F03BF8EE8AF0A42C34
:10024300FCE5F038F8E433CF89F0A42CFCE5F03872
:10025300CF3400CE89F0A42FFFE5F03EFEE433C98E
:100263008DF0A42EFEE5F039CD8AF0A42FFFE5F042
:100273003EFEE43DFD33D0E0FB50070BBB000F0215
:100283000472EC2CFCEF33FFEE33FEED33FD02047E
:100293004A020472EC5D046005E859047003020429
:1002A30068120433580460F6EC4860F2EC7004FD05
:1002B300FEFF22C860DB2481C85009C39860025046
:1002C3000602046F9850CAF582E9294B4A7005ABC0
:1002D3008202045E75F0007C1A7880C3EF9BEE9A6D
:1002E300ED99400DC3EF9BFFEE9AFEED99FDE842B9
:1002F300F0DC23ACF0D0E0FFD0E0FED0E0FDAB8239
:1003030020E7101BEB60BAEC2CFCEF33FFEE33FE5F
:10031300ED33FD02044AE803F830E705C0F075F059
:1003230000EF2FFFEE33FEED33FD40B830E7C28020
:10033300AA74F8CC6480CCC86480C8F58204604F8A
:10034300C3EB9FF5F0EA9E42F0E99D42F0E89C453D
:10035300F0603C501DE5825FFFE582D313CB5BCB9E
:10036300F42B5582FB50280ABA002409B90020084F
:10037300801DE5825BFBE582D313CF5FCFF4C3130C
:100383002F5582FF50090EBE00050DBD00010CC3A1
:10039300EB9FF5F0EA9E42F0E99D42F0E89C45F0C0
:1003A3006007CC4820E701B3EC22ED33EC33600A5D
:1003B300047003BD8004ECB2E7FC2275F020800ECC
:1003C30075F010800575F0087D007E007F00339284
:1003D300D530D50312087AEC334010EF33FFEE33F8
:1003E300FEED33FDEC33FCD5F0ED22E5F0247EA2E7
:1003F300D513CC92E7CDCEFF22EDD2E7CD33EC334C
:1004030092D524814006E4FFFEFDFC22FCE4CFCE1E
:10041300CDCC24E0501174FF80EDC3CC13CCCD13AD
:10042300CDCE13CECF13CF0470F030D5DE02087AD1
:10043300E9D2E7C933E833F892D5EDD2E7CD33EC0F
:1004430033FC5002B2D522EC30E7100FBF000C0E84
:10045300BE00080DBD00040BEB6014A2D5EB13FC2A
:10046300ED92E7FD2274FFFCFDFEFF22E480F8A27B
:10047300D574FF13FC7D80E480EFC0E0EFFBEEFA60
:10048300EDF9ECF812018ED0E0F5F0EFFBEEFAEDAA
:10049300F9ECF81208E2A3A3A3A3E8C0E0E9C0E0E3
:1004A300EAC0E0EBC0E0C0F012018E1208FEA3A385
:1004B300A3A312009DD0F0D0E0FBD0E0FAD0E0F986
:1004C300D0E0F8D5F0D422E709F608DFFA8046E752
:1004D30009F208DFFA803E88828C83E709F0A3DF04
:1004E300FA8032E309F608DFFA8078E309F208DFDD
:1004F300FA807088828C83E309F0A3DFFA80648931
:10050300828A83E0A3F608DFFA805889828A83E02F
:10051300A3F208DFFA804C80D280FA80C680D480B0
:100523006980F28033801080A680EA809A80A88058
:10053300DA80E280CA803389828A83ECFAE493A367
:10054300C8C582C8CCC583CCF0A3C8C582C8CCC5F6
:1005530083CCDFE9DEE7800D89828A83E493A3F607
:1005630008DFF9ECFAA9F0EDFB2289828A83ECFA21
:10057300E0A3C8C582C8CCC583CCF0A3C8C582C8D4
:10058300CCC583CCDFEADEE880DB89828A83E4930F
:10059300A3F208DFF980CC88F0EF60010E4E60C350
:1005A30088F0ED2402B4040050B9F582EB2402B4C0
:1005B300040050AF232345822390051A73C2D5301C
:1005C300F707B2D563F0FF05F030E70CB2D5F404BA
:1005D3008463F0FF05F080018430D502F40422BB6C
:1005E300010689828A83E0225002E722BBFE02E3EE
:1005F3002289828A83E49322BB010CE58229F58256
:10060300E5833AF583E0225006E92582F8E622BB2A
:10061300FE06E92582F8E222E58229F582E5833A9E
:10062300F583E49322BB010689828A83F022500278
:10063300F722BBFE01F322F8BB010DE58229F58207
:10064300E5833AF583E8F0225006E92582C8F622CD
:10065300BBFE05E92582C8F222EF8DF0A4A8F0CFF6
:100663008CF0A428CE8DF0A42EFE22BC000BBE007D
:1006730029EF8DF084FFADF022E4CCF875F008EF9C
:100683002FFFEE33FEEC33FCEE9DEC984005FCEEC1
:100693009DFE0FD5F0E9E4CEFD22EDF8F5F0EE84F2
:1006A30020D21CFEADF075F008EF2FFFED33FD40B7
:1006B30007985006D5F0F222C398FD0FD5F0EA2231
:1006C300C2D5EC30E709B2D5E4C39DFDE49CFCEE52
:1006D30030E715B2D5E4C39FFFE49EFE12066EC356
:1006E300E49DFDE49CFC800312066E30D507C3E451
:1006F3009FFFE49EFE22C5F0F8A3E028F0C5F0F8C2
:10070300E582158270021583E038F022A3F8E0C574
:10071300F025F0F0E582158270021583E0C838F009
:10072300E822BB0110E58229F582E5833AF583E0EF
:10073300F5F0A3E0225009E92582F886F008E622C5
:10074300BBFE0AE92582F8E2F5F008E222E5832AF6
:10075300F583E993F5F0A3E99322E88FF0A4CC8B1A
:10076300F0A42CFCE98EF0A42CFC8AF0EDA42CFC64
:10077300EA8EF0A4CDA8F08BF0A42DCC3825F0FDA3
:10078300E98FF0A42CCD35F0FCEB8EF0A4FEA9F09C
:10079300EB8FF0A4CFC5F02ECD39FEE43CFCEAA4E8
:1007A3002DCE35F0FDE43CFC2275F008758200EF98
:1007B3002FFFEE33FECD33CDCC33CCC58233C58290
:1007C3009BED9AEC99E58298400CF582EE9BFEED49
:1007D3009AFDEC99FC0FD5F0D6E4CEFBE4CDFAE418
:1007E300CCF9A88222B800C1B90059BA002DEC8B0C
:1007F300F084CFCECDFCE5F0CBF97818EF2FFFEEE8
:1008030033FEED33FDEC33FCEB33FB10D7039940A0
:1008130004EB99FB0FD8E5E4F9FA227818EF2FFFE0
:10082300EE33FEED33FDEC33FCC933C910D7059B22
:10083300E99A4007EC9BFCE99AF90FD8E0E4C9FA7E
:10084300E4CCFB2275F010EF2FFFEE33FEED33FD0A
:10085300CC33CCC833C810D7079BEC9AE899400A2D
:10086300ED9BFDEC9AFCE899F80FD5F0DAE4CDFBAB
:10087300E4CCFAE4C8F922C3E49FFFE49EFEE49DBE
:10088300FDE49CFC22EB9FF5F0EA9E42F0E99D42D9
:10089300F0EC6480C864809845F022EB9FF5F0EAA1
:1008A3009E42F0E99D42F0E89C45F022E8600FEC9F
:1008B300C313FCED13FDEE13FEEF13FFD8F122BBC0
:1008C300010789828A830209DB5005E9F80209CF0F
:1008D300BBFE05E9F80209E789828A830208E2E49C
:1008E30093FC740193FD740293FE740393FF22E05F
:1008F300F8A3E0F9A3E0FAA3E0FB22E493F8740180
:1009030093F9740293FA740393FB22ECF0A3EDF0D2
:10091300A3EEF0A3EFF022A8828583F0D083D082E8
:10092300120931120931120931120931E473E493C6
:10093300A3C583C5F0C583C8C582C8F0A3C583C555
:10094300F0C583C8C582C822F5F0C582A4C582C597
:10095300F0C583A42583F58322BB010789828A839B
:100963000209FC5005E9F80209F3BBFE05E9F802A8
:100973000A0589828A83020A0ED083D082F8E4931F
:100983007012740193700DA3A393F8740193F5820D
:100993008883E4737402936860EFA3A3A380DFECFE
:1009A3008EF0A4CCC5F0CCCDF8EFA4CEC5F02DFDD0
:1009B300E43CFCE8A42EC8C5F03DFDE43CFCEFA4F8
:1009C300FFE5F028FEE43DFDE43CFC22E6FC08E6FE
:1009D300FD08E6FE08E6FF22E0FCA3E0FDA3E0FE3F
:1009E300A3E0FF22E2FC08E2FD08E2FE08E2FF22A8
:1009F300E6FB08E6FA08E6F922E0FBA3E0FAA3E047
:100A0300F922E2FB08E2FA08E2F922E493FB74011B
:100A130093FA740293F9229003C9EBF0A3EAF0A3CB
:100A2300E9F09003F712091A000000009003FB7429
:100A330001F0A37403F0A374CFF09003CCE0FBA305
:100A4300E0FAA3E0F91205E2FF7003020F9F90039F
:100A5300FEF064256003020F4B9003CCA3E475F012
:100A6300011206F9A9F0FA1205E212097C0F172503
:100A73000B1F460DF1580A98630AB4640B1F660AEC
:100A8300B4690D776F0EBE700E45730CF1750DF1E1
:100A93007800000F929003FBE0FBA3E475F00412CF
:100AA300070FA9F0FA1208C29003FFEFF0E0020F5C
:100AB300599003FBE0FBA3E475F00412070FA9F0C0
:100AC300FA1208C290042012090E900420E0FCA33D
:100AD300E0FDA3E0FEA3E0FF7B017A0379FF90042E
:100AE3002C7401F0A3740AF0122518900424EFF07B
:100AF300900420E0FCA3A3A3EC335014A3E024FF51
:100B0300F582E43403F583742DF0900424E004F0BB
:100B13007B017A0379FF900424020D359003FBE0F7
:100B2300FBA3E475F00412070FA9F0FA1208C290B0
:100B3300042012090E900420E0FCA3E0FDA3E0FED4
:100B4300A3E0FF1203FC7B017A0379FF90042C746A
:100B530001F0A3740AF0122518900424EFF0E4FFC7
:100B6300FEFDFC900420E0F8A3E0F9A3E0FAA3E083
:100B7300FB1203345016900424E024FFF582E4347E
:100B830003F583742DF0900424E004F07B017A03D1
:100B930079FF900424122EDE900424E0FF7E00905F
:100BA30003C9E0FBA3E0FAA3E0F8AC02AD037B01C9
:100BB3007A0379FF12059A900424E0FFFD9003CA9B
:100BC300E48DF01206F99003F7E0F8A3E0F9A3E04F
:100BD300FAA3E0FBE4FCFDFEEB2FFFEE3AFEED395A
:100BE300FDEC38FC9003F712090E900420E0FCA3FF
:100BF300E0FDA3E0FEA3E0FF1203FCEC1203BEA89A
:100C030004A905AA06AB07900420E0FCA3E0FDA31A
:100C1300E0FEA3E0FF1200997B007A2479747849FF
:100C230012018E90042012090E900420E0FCA3E030
:100C3300FDA3E0FEA3E0FFEC4D4E4F6024900420A3
:100C4300A3A3A3E01203FC7B017A0379FF90042C96
:100C53007401F0A3740AF0122518900424EFF080B5
:100C6300209004047430F0900403F0900402F09098
:100C73000401F0900400F09003FFF0900424740644
:100C8300F0900424E0FF7406D39F401574FF2FF502
:100C930082E43403F5837430F0900424E004F0809C
:100CA300E0900424E024FFF582E43403F583742EFA
:100CB300F0900424E004122ED7900424E0FF7E0079
:100CC3009003C9E0FBA3E0FAA3E0F8AC02AD037B19
:100CD300017A0379FF12059A9003F7E0F8A3E0F98C
:100CE300A3E0FAA3E0FB900424E0FF020E33900399
:100CF300FBE0FBA3E475F00412070FA9F0FA120856
:100D0300C290042012090E900420E0FCA3E0FDA38E
:100D1300E0FEA3E0FF7B017A0379FFE490042CF06B
:100D2300A3740AF0122518900424EFF07B017A03D0
:100D330079FF122EDE900424E0FF7E009003C9E0C9
:100D4300FBA3E0FAA3E0F8AC02AD037B017A0379DD
:100D5300FF12059A900424E0FFFD9003CAE48DF08E
:100D63001206F99003F7E0F8A3E0F9A3E0FAA3E091
:100D7300FB020E339003FBE0FBA3E475F0041207C0
:100D83000FA9F0FA1208C290042012090E90042051
:100D9300E0FCA3E0FDA3E0FEA3E0FF7B017A03797F
:100DA300FFE490042CF0A37408F0122518122ED33C
:100DB300900424E0FF7E009003C9E0FBA3E0FAA3C4
:100DC300E0F8AC02AD037B017A0379FF12059A9038
:100DD3000424E0FFFD9003CAE48DF01206F99003AA
:100DE300F7E0F8A3E0F9A3E0FAA3E0FB80421224C2
:100DF300E2122ED3900424E0FF7E009003C9E0FBAF
:100E0300A3E0FAA3E0F8AC02AD037B017A0379FF18
:100E130012059A900424E0FFFD9003CAE48DF012BA
:100E230006F99003F7E0F8A3E0F9A3E0FAA3E0FBE7
:100E3300E4FCFDFEEB2FFFEE3AFEED39FDEC38024C
:100E43000F8B9003FBE0FBA3E475F00312070FA9DC
:100E5300F0FA12095C9003FFEBF0A3EAF0A3E9F0C8
:100E63009003FFE0FBA3E0FAA3E0F91205E27003AD
:100E7300020F921205E2FF9003C9E0FBA3E0FAA37D
:100E8300E0F9EF1206289003CAE475F0011206F99F
:100E93009003F7E0FCA3E0FDA3E0FEA3E02401FF41
:100EA300E43EFEE43DFDE43CFC9003F712090E90A2
:100EB3000400E475F0011206F980A51224E29004FF
:100EC30024EFF07B017A0379FF7F087E007D007CAD
:100ED30000122EE49003C9E0FBA3E0FAA3E0F8AC10
:100EE30002AD037B017A0379FF7E007F0812059A26
:100EF3009003CAE475F0081206F99003F7E0FCA327
:100F0300E0FDA3E0FEA3E02408FFE43EFEE43DFD94
:100F1300E43C80749003C9E0FBA3E0FAA3E0F97416
:100F2300251206289003CAE475F0011206F990030E
:100F3300F7E0FCA3E0FDA3E0FEA3E02401FFE43E11
:100F4300FEE43DFDE43C80409003CCE0FBA3E0FAEB
:100F5300A3E0F91205E2FF9003C9E0FBA3E0FAA3C3
:100F6300E0F9EF1206289003CAE475F0011206F9BE
:100F73009003F7E0FCA3E0FDA3E0FEA3E02401FF60
:100F8300E43EFEE43DFDE43CFC9003F712090E90C1
:100F930003CDE475F0011206F9020A3D9003FBE468
:100FA300F0A3F0A3F09003F7E0FCA3E0FDA3E0FEC1
:100FB300A3E0FF22E4FF123EB730C1661232857B05
:100FC300FF7A4E79467D01E4FF1236637BFF7A4E4A
:100FD300794B7D01E4FF123663900090E0FAA3E0C1
:100FE300FB7D017F28123F047BFF7A4E79517D02FE
:100FF300E4FF12366390008EE0FAA3E0FB7D027FEC
:1010030028123F047BFF7A4E79517D03E4FF1236A9
:101013006390008EE0FAA3E0FB7D037F28123F0478
:101023008097A2C19202123D8602143720C10302A7
:10103300143F7BFF7A4E79587D017F141236637B10
:10104300FF7A4E79667D047F1E1236637BFF7A4EEC
:10105300796A7D047F5012366320B70302143F2060
:10106300C2CAE4FF123EB730C1411232859000ABD1
:10107300E0FAA3E0FB7D02E4FF123F049000A5E049
:10108300FAA3E0FB7D03E4FF123F0490008EE0FF30
:10109300A3E09000A5CFF0A3EFF0900090E0FFA3B2
:1010A300E09000ABCFF0A3EFF080BC7F0A7E00128C
:1010B300002630C1FDE4FF123EB730C17020B71ADD
:1010C300900102E0FCA3E0FDA3E0FEA3E0FFE4FB4C
:1010D300FA7980783F120099801B20C21E9001028A
:1010E300E0FCA3E0FDA3E0FEA3E0FFE4FBFA7980CC
:1010F300783F12009D90010212090E7BFF7A4E7910
:101103006D7D01E4FF123663900102E0FCA3E0FD74
:10111300A3E0FEA3E0FF1203FCAB07AA067D017F59
:101123001E1238E67F647E00120026808D7F0A7EC1
:101133000012002630C1FD30C17020B71A9000D1D3
:10114300E0FCA3E0FDA3E0FEA3E0FFE4FBFA79806B
:10115300783F120099801B20C21E9000D1E0FCA3AF
:10116300E0FDA3E0FEA3E0FFE4FBFA7980783F1201
:10117300009D9000D112090E7BFF7A4E79707D029B
:10118300E4FF1236639000D1E0FCA3E0FDA3E0FE90
:10119300A3E0FF1203FCAB07AA067D027F1E1238F1
:1011A300E67F647E00120026808D7F0A7E00120097
:1011B3002630C1FD30C17020B71A900041E0FCA376
:1011C300E0FDA3E0FEA3E0FFE4FBFA7980783F12A1
:1011D3000099801B20C21E900041E0FCA3E0FDA308
:1011E300E0FEA3E0FFE4FBFA7980783F12009D90D4
:1011F300004112090E7BFF7A4E79737D03E4FF12DF
:101203003663900041E0FCA3E0FDA3E0FEA3E0FF12
:101213001203FCAB07AA067D037F1E1238E67F6428
:101223007E00120026808D7F0A7E0012002630C1C8
:10123300FD30C16E20B7199001B6E0FCA3E0FDA319
:10124300E0FEA3E0FFE4FBFAF97840120099801A6C
:1012530020C21D9001B6E0FCA3E0FDA3E0FEA3E0E5
:10126300FFE4FBFAF9784012009D9001B612090ED3
:101273007BFF7A4E79767D04E4FF1236639001B6E4
:10128300E0FCA3E0FDA3E0FEA3E0FF1203FCAB0739
:10129300AA067D047F1E1238E67F647E00120026B4
:1012A300808F7F0A7E0012002630C1FD30C170207E
:1012B300B71A90007BE0FCA3E0FDA3E0FEA3E0FFF0
:1012C300E4FBFA7980783F120099801B20C21E90BC
:1012D300007BE0FCA3E0FDA3E0FEA3E0FFE4FBFA58
:1012E3007980783F12009D90007B12090E7BFF7A74
:1012F3004E79797D05E4FF12366390007BE0FCA311
:10130300E0FDA3E0FEA3E0FF1203FCAB07AA067D0A
:10131300057F1E1238E67F647E00120026808D7FD3
:101323000A7E0012002630C1FD30C17020B71A902A
:10133300004AE0FCA3E0FDA3E0FEA3E0FFE4FBFA28
:101343007980783F120099801B20C21E90004AE0EA
:10135300FCA3E0FDA3E0FEA3E0FFE4FBFA798078C1
:101363003F12009D90004A12090E7BFF7A4E797C52
:101373007D06E4FF12366390004AE0FCA3E0FDA380
:10138300E0FEA3E0FF1203FCAB07AA067D067F1E67
:101393001238E67F647E00120026808D7F0A7E006D
:1013A30012002630C1FD7F207E0012401F122FCC79
:1013B3007F647E001200269003A112091A00000028
:1013C300039003A57405F0FD7C007F1E7E001230A0
:1013D300C07FE87E031200269003A112091A0000C1
:1013E30000029003A57405F0FD7C007F1E7E0012B1
:1013F30030C07FE87E031200269003A112091A0071
:101403000000019003A57405F0FD7C007F1E7E00A3
:101413001230C07FE87E031200269003A112091A3E
:10142300000000009003A57405F0FD7C007F1E7E84
:10143300001230C0E4FF123EB702102FE4FF023E59
:10144300B79000E6E0FCA3E0FDA3E0FEA3E0FF907D
:1014530000F4E0F8A3E0F9A3E0FAA3E02FFFEA3EEB
:10146300FEE93DFDE83CFCE47B02FAF9F8123CC6D8
:10147300EC1203BE90009412090E900180E0FCA3CD
:10148300E0FDA3E0FEA3E0FFEC1203BE900094E0B6
:10149300F8A3E0F9A3E0FAA3E0FB12009D1203FC1A
:1014A30090018012090EE4FFFE7D347C4290010C12
:1014B300E0F8A3E0F9A3E0FAA3E0FB12018E9001A8
:1014C300B012090E900098E06003021606C3900163
:1014D300ACE064809480500302156BE4FFFE7D2032
:1014E3007C419001B0E0F8A3E0F9A3E0FAA3E0FBAC
:1014F30012018EC004C005C006C0079001ACE0FE17
:10150300A3E0FF7C007D0312065CAC06AD07EC1282
:1015130003C3A804A905AA06AB07D007D006D005C4
:10152300D00412009990039012090EE4FFFE7D206F
:101533007C419001B0E0F8A3E0F9A3E0FAA3E0FB5B
:1015430012018EC004C005C006C0079001ACE0FCC8
:10155300A3E0FDEC1203C3D003D002D001D00012EC
:10156300009D90039412090EC39001ACE064809433
:10157300804003021606E4FFFE7D207C419001B00B
:10158300E0F8A3E0F9A3E0FAA3E0FB12018EC004A4
:10159300C005C006C0079001ACE0FCA3E0FDEC125F
:1015A30003C3A804A905AA06AB07D007D006D00534
:1015B300D00412009990039012090EE4FFFE7D20DF
:1015C3007C419001B0E0F8A3E0F9A3E0FAA3E0FBCB
:1015D30012018EC004C005C006C0079001ACE0FE36
:1015E300A3E0FF7C007D0312065CAC06AD07EC12A2
:1015F30003C3D003D002D001D00012009D90039406
:1016030012090E900390E0FCA3E0FDA3E0FEA3E02B
:10161300FF1203FC90006AEEF0A3EFF0900394E056
:10162300FCA3E0FDA3E0FEA3E0FF1203FC9000880F
:10163300EEF0A3EFF090006AE0FEA3E0FFC3EE64D8
:10164300809480402DD3EF9410EE648094A74006DD
:101653007E277F10800890006AE0FEA3E0FF9000E1
:101663006AEEF0FCA3EFF0FD7F26122DC0E4FDFC33
:10167300804690006AE0FEA3E0FFC3E49FFFE49E80
:10168300FE90006AF0A3EFF0D39410EE648094A769
:1016930040067E277F10800890006AE0FEA3E0FFEB
:1016A30090006AEEF0A3EFF0E4FDFC7F26122DC05C
:1016B30090006AE0FCA3E0FD7F27122DC090008814
:1016C300E0FEA3E0FFC3EE648094804033D3EF9445
:1016D30010EE648094A740067E277F108008900058
:1016E30088E0FEA3E0FF900088EEF0A3EFF0E4FDB6
:1016F300FC7F45122DC0900088E0FCA3E0FD8040F4
:10170300900088E0FEA3E0FFC3E49FFFE49EFE9009
:101713000088F0A3EFF0D39410EE648094A7400602
:101723007E277F108008900088E0FEA3E0FF9000F2
:1017330088EEF0FCA3EFF0FD7F45122DC0E4FDFC25
:101743007F46122DC022E4900390F0A3F0A3F0A3F0
:10175300F07F03123C3B900390EEF0A3EFF07F0485
:10176300123C3B900392EEF0A3EFF07F03123B6237
:101773007F04123B62900390E0FEA3E0FFEE3395FB
:10178300E0FDFC9000F412090E900392E0FEA3E04A
:10179300FFEE3395E0FDFC9000E612090E9000F495
:1017A300E0FCA3E0FDA3E0FEA3E0FFEC1203BE9088
:1017B300007FE0F8A3E0F9A3E0FAA3E0FB12018EB7
:1017C3009000E212090EE4FFFE7D7A7C459000E270
:1017D300E0F8A3E0F9A3E0FAA3E0FB120334600B03
:1017E3004009E4FFFE7D7A7C45800E9000E2E0FC38
:1017F300A3E0FDA3E0FEA3E0FF9000E212090E9038
:1018030000E6E0FCA3E0FDA3E0FEA3E0FFEC12038F
:10181300BE900073E0F8A3E0F9A3E0FAA3E0FB12A3
:10182300018E9000D912090EE4FFFE7D7A7C45906B
:1018330000D9E0F8A3E0F9A3E0FAA3E0FB12033434
:10184300600B4009E4FFFE7D7A7C45800E9000D951
:10185300E0FCA3E0FDA3E0FEA3E0FF9000D91209A2
:101863000E9000D9E0FCA3E0FDA3E0FEA3E0FF900F
:1018730000E2E0F8A3E0F9A3E0FAA3E0FB12009D85
:10188300E4FBFAF9783F12018E9000A112090E9041
:10189300005BE0FCA3E0FDA3E0FEA3E0FF900004F7
:1018A30012090E9000A1E0FCA3E0FDA3E0FEA3E07B
:1018B300FF90000812090E900004E0FCA3E0FDA3D2
:1018C300E0FEA3E0FFA3E0F8A3E0F9A3E0FAA3E0BE
:1018D300FB1203344053900004E0F8A3E0F9A3E0C3
:1018E300FAA3E0FBA3E0FCA3E0FDA3E0FEA3E0FF7B
:1018F300120099E4FBFA79C87843120334501AE4CE
:10190300FFFE7DC87C43900004E0F8A3E0F9A3E068
:10191300FAA3E0FB12009D8063900008E0FCA3E0C3
:10192300FDA3E0FEA3E0FF8053900004E0F8A3E0F2
:10193300F9A3E0FAA3E0FBA3E0FCA3E0FDA3E0FE30
:10194300A3E0FF120099E4FBFA79C878C3120334C9
:10195300601C401AE4FFFE7DC87CC3900004E0F8DD
:10196300A3E0F9A3E0FAA3E0FB12009D800E900030
:1019730008E0FCA3E0FDA3E0FEA3E0FF90005B1200
:10198300090E900065E0FCA3E0FDA3E0FEA3E0FFE9
:10199300EC1203BE90005BE0F8A3E0F9A3E0FAA326
:1019A300E0FB1200999000C912090E90011CE0FCA3
:1019B300A3E0FDA3E0FEA3E0FFA312090E9001182C
:1019C300E0FCA3E0FDA3E0FEA3E0FFA312090E9059
:1019D3000114E0FCA3E0FDA3E0FEA3E0FFA31209D2
:1019E3000E900110E0FCA3E0FDA3E0FEA3E0FFA343
:1019F30012090E9000C9E0FCA3E0FDA3E0FEA3E002
:101A0300FF90011002090EED6003021AADEF54F0CE
:101A1300FE7014EF540FFC7401A804088002C33352
:101A2300D8FCF452935294BE1014EF540FFE740179
:101A3300A806088002C333D8FCF452915292EF54A3
:101A4300F0FEBE2014EF540FFE7401A806088002B6
:101A5300C333D8FCF452955296EF54F0FEBE3014C3
:101A6300EF540FFC7401A804088002C333D8FCF4BC
:101A730052B152B2BE4014EF540FFE7401A80608CF
:101A83008002C333D8FCF452B352B4EF54F0645021
:101A93006003021CB5EF540FFE7401A80608800210
:101AA300C333D8FCF452C952CA22ED640160030265
:101AB3001B5DEF54F0FE7016EF540FFC7401A80485
:101AC300088002C333D8FCFCF45293EC4294BE105A
:101AD30016EF540FFE7401A806088002C333D8FC26
:101AE300FEF45291EE4292EF54F0FEBE2016EF54F4
:101AF3000FFE7401A806088002C333D8FCFEF4521B
:101B030095EE4296EF54F0FEBE3016EF540FFC7480
:101B130001A804088002C333D8FCFCF452B1EC42A0
:101B2300B2BE4016EF540FFE7401A806088002C32C
:101B330033D8FCFEF452B3EE42B4EF54F064506079
:101B430003021CB5EF540FFE7401A806088002C3FC
:101B530033D8FCFEF452C9021CB2ED6402600302E6
:101B63001C0EEF54F0FE7016EF540FFC7401A80422
:101B7300088002C333D8FCFC4293ECF45294BE10A9
:101B830016EF540FFE7401A806088002C333D8FC75
:101B9300FE4291EEF45292EF54F0FEBE2016EF5443
:101BA3000FFE7401A806088002C333D8FCFE4295D9
:101BB300EEF45296EF54F0FEBE3016EF540FFC7461
:101BC30001A804088002C333D8FCFC42B1ECF452F0
:101BD300B2BE4016EF540FFE7401A806088002C37C
:101BE30033D8FCFE42B3EEF452B4EF54F0645060C9
:101BF30003021CB5EF540FFE7401A806088002C34C
:101C030033D8FCFE42C9EEF452CA22ED64036003EA
:101C1300021CB5EF54F0FE7015EF540FFD7401A8CC
:101C230005088002C333D8FCFD4293ED4294BE10F5
:101C330015EF540FFE7401A806088002C333D8FCC5
:101C4300FE4291EE4292EF54F0FEBE2015EF540F88
:101C5300FE7401A806088002C333D8FCFE4295EE49
:101C63004296EF54F0FEBE3015EF540FFD7401A8F9
:101C730005088002C333D8FCFD42B1ED42B2BE4039
:101C830015EF540FFE7401A806088002C333D8FC75
:101C9300FE42B3EE42B4EF54F0FEBE5015EF540FC4
:101CA300FE7401A806088002C333D8FCFE42C9EEC5
:101CB30042CA22900458E0FCA3E0FDEC1203C39057
:101CC300013C12090E90045AE0FCA3E0FDEC120360
:101CD300C390014012090E900450E0FCA3E0FDEC18
:101CE3001203C390006E12090E900454E0FCA3E0AB
:101CF300FDEC1203C390008312090EE4FFFEFD7C8A
:101D03004790013CE0F8A3E0F9A3E0FAA3E0FB125B
:101D130003346020401E90013CE0FCA3E0FDA3E0FF
:101D2300FEA3E0FFE4FBFA79807847120099900163
:101D33003C12090EE4FFFEFD7C47900140E0F8A34E
:101D4300E0F9A3E0FAA3E0FB1203346020401E9005
:101D53000140E0FCA3E0FDA3E0FEA3E0FFE4FBFA07
:101D63007980784712009990014012090EE4FFFE32
:101D7300FD7C4790006EE0F8A3E0F9A3E0FAA3E04E
:101D8300FB1203346020401E90006EE0FCA3E0FDD4
:101D9300A3E0FEA3E0FFE4FBFA7980784712009901
:101DA30090006E12090EE4FFFEFD7C47900083E075
:101DB300F8A3E0F9A3E0FAA3E0FB120334602040A8
:101DC3001E900083E0FCA3E0FDA3E0FEA3E0FFE49C
:101DD300FBFA7980784712009990008312090E90DC
:101DE300013CE0FCA3E0FDA3E0FEA3E0FF1203AD92
:101DF3009000AD12090E900083E0FCA3E0FDA3E088
:101E0300FEA3E0FF90039412090E90006EE0FCA382
:101E1300E0FDA3E0FEA3E0FF1234A7E4FBFA79346C
:101E2300784312018E7BC37AF57948784012029782
:101E330090007712090E90013CE0FCA3E0FDA3E0C3
:101E4300FEA3E0FF7B337A337983784112029790C4
:101E5300013C12090E900140E0FCA3E0FDA3E0FE6B
:101E6300A3E0FF7B337A33798378411202979001A1
:101E73004012090E90013CE0FCA3E0FDA3E0FEA3A9
:101E8300E0FF1203AD90039412090E900077E0FC7B
:101E9300A3E0FDA3E0FEA3E0FF12354490004EE073
:101EA300FCA3E0FDA3E0FEA3E0FF9001A812090E4E
:101EB300900140E0FCA3E0FDA3E0FEA3E0FF90005F
:101EC300C512090E900083E0FCA3E0FDA3E0FEA38E
:101ED300E0FF90005F02090E43BA80E59D602B7816
:101EE300FAE6FFAD9FC3ED9FFFE49400FEE4FCFD23
:101EF3007BE07A287901F812075DE42FFFEE345175
:101F0300FEED3425FDEC3402802378FBE6FFAD9F24
:101F1300C3ED9FFFE49400FE7CBB7D801209A2E425
:101F23002FFFEE3436FEED346EFDEC3401FC9003EE
:101F33009D12090E90039DE0FCA3E0FDA3E0FEA328
:101F4300E0FFC00790FE01E0FBE4FAF9F8D00712C6
:101F530007E890039D12090E7FC07EF67D577C0033
:101F630090039DE0F8A3E0F9A3E0FAA3E0FBC3121A
:101F7300089E50097F007E607D547C00227FC07ED6
:101F8300267D827C0090039DE0F8A3E0F9A3E0FAAC
:101F9300A3E0FBC312089E50097F807E8D7D5B7C8E
:101FA30000227F807EED7DAF7C0090039DE0F8A34F
:101FB300E0F9A3E0FAA3E0FBC312089E50097F00F7
:101FC3007EC07DA87C00227F807E2D7DE87C0090F2
:101FD300039DE0F8A3E0F9A3E0FAA3E0FBC3120832
:101FE3009E50097F007E1B7DB77C00227F807E365A
:101FF3007D257C0190039DE0F8A3E0F9A3E0FAA31B
:10200300E0FBC312089E50097F007E407D197C01CE
:10201300227F807E567D417C0190039DE0F8A3E002
:10202300F9A3E0FAA3E0FBC312089E50097F007EE8
:102033002D7D317C01227F007EDB7D5F7C0190035F
:102043009DE0F8A3E0F9A3E0FAA3E0FBC312089E26
:1020530050097F007E807D517C01227F607E197D47
:10206300857C0190039DE0F8A3E0F9A3E0FAA3E0E7
:10207300FBC312089E50097F007E367D6E7C0122D1
:102083007F207EE07DB27C0190039DE0F8A3E0F920
:10209300A3E0FAA3E0FBC312089E50097FC07EFCB5
:1020A3007D9B7C01227FE07EA67DE07C0190039DE9
:1020B300E0F8A3E0F9A3E0FAA3E0FBC312089E5003
:1020C300097F807EC37DC97C01227F607E2B7DFFDB
:1020D3007C0190039DE0F8A3E0F9A3E0FAA3E0FB01
:1020E300C312089E50097F007E407DFA7C01227F47
:1020F300C07E0E7D167C022290039DEFF0E49003D8
:10210300A8F07D01121A0A90039DE0C4540FFF74D6
:1021130001A807088002C333D8FC42F143BA809078
:10212300039EE0F8A3E0F9A3E0FAA3E0FB90046CBC
:10213300E0FCA3E0FDA3E0FEA3E0FF1207E8780FB5
:102143001208AF9003A8EFF090039EE0F8A3E0F924
:10215300A3E0FAA3E0FB90046CE0FCA3E0FDA3E0A2
:10216300FEA3E0FF1207E8C006C0079003A8E0241F
:1021730001FFE433AB07FAE4F9F8D007D0061207FE
:10218300E89003A6EEF0A3EFF09003A2E0FCA3E037
:10219300FDE41203C37B007A40791C784612029750
:1021A300C004C005C006C0079003A6E0FCA3E0FD81
:1021B300E41203C3D003D002D001D00012018E1267
:1021C30003FC9003A4EEF0A3EFF090039DE0FFC3A4
:1021D30094309003A8E0FD506AEFC4540FF975F0F2
:1021E30050A4FFAEF02402FBEE34FF8B82F583EDA7
:1021F300F09003A6E0FCA3E0FDE42FFFEE34FF8F95
:1022030082F583ECF0A3EDF09003A4E0FCA3E0FDE2
:10221300E975F050A42410FBE5F034FFFA90039D18
:10222300E0540F75F008A42BFFE5F03A8F82F58395
:10223300ECF0A3EDF0E975F050A42414FDE5F034BF
:10224300FF806D90039DE024D0C4540FF975F050C6
:10225300A4FFAEF02402FBEE34FC8B82F583EDF099
:102263009003A6E0FCA3E0FDE42FFFEE34FC8F8295
:10227300F583ECF0A3EDF09003A4E0FCA3E0FDE90B
:1022830075F050A42410FBE5F034FCFA90039DE0B4
:10229300540F75F008A42BFFE5F03A8F82F583EC19
:1022A300F0A3EDF0E975F050A42414FDE5F034FC3F
:1022B300FC90039DE0540F75F008A42DFFE5F03C5E
:1022C3008F82F583E04480F090039DE0C4540F14A3
:1022D300601514601714601914601B14601D240525
:1022E300701C43F601801743F610801243F70180F8
:1022F3000D43F710800843FE01800343FE1053BAD9
:102303007F22120010123A257D037F201236E7E464
:10231300FD7F231236E77D027F161236E77D017FAC
:10232300071236E7E4FD7F01123BF4E4FD7F02125E
:102333003BF412335B1200167F03123D0A7F041233
:102343003D0A120FB790039E12091A00003A98E44F
:102353009003A2F0A3F07F261220FB90039E1209A4
:102363001A00003A98E49003A2F0A3F07F2712200A
:10237300FB90039E12091A00003A98E49003A2F01E
:10238300A3F07F461220FB90039E12091A00003A25
:1023930098E49003A2F0A3F07F451220FB120022E1
:1023A300123BAB7F0A7E001200267D017C00E4FF16
:1023B3001231A612004EC2C07BFF7A4E797FE4FD34
:1023C3007F1E123663900077E0FCA3E0FDA3E0FEDE
:1023D300A3E0FF1203FC9003A112090E9003A5745E
:1023E30005F07D017C00E4FFFE1230C090004EE05A
:1023F300FCA3E0FDA3E0FEA3E0FF1203FC9003A116
:1024030012090E9003A57405F07D027C00E4FFFE23
:102413001230C0900090E0FEA3E0FFEE3395E0FDA4
:10242300FC9003A112090E9003A57405F07D037CB3
:1024330000E4FFFE1230C090008EE0FEA3E0FFEE4A
:102443003395E0FDFC9003A112090E9003A57405DA
:10245300F07D047C00E4FFFE1230C090006AE0FED1
:10246300A3E0FFEE3395E0FDFC9003A112090E906B
:1024730003A57405F0FD7C00E4FFFE1230C090005C
:1024830088E0FEA3E0FFEE3395E0FDFC9003A1128C
:10249300090E9003A57405F07D067C00E4FFFE128F
:1024A30030C09001ACE0FEA3E0FFEE3395E0FDFC0D
:1024B3009003A112090E9003A57405F07D077C001B
:1024C300E4FFFE1230C07F0A7E0012002630B603FE
:1024D3000223B9120010120FB712004E0223B99053
:1024E30003FBE0FBA3E475F00412070FA9F0FA1253
:1024F30008C290042012090E900420E0FCA3E0FD22
:10250300A3E0FEA3E0FF7B017A0379FFE490042CB0
:10251300F0A37410F090042512090E900429EBF037
:10252300A3EAF0A3E9F0E4900436F0A3F090042CBE
:10253300E070030225E7900425E0FCA3E0FDA3E09F
:10254300FEA3E0FF90042E12090E90042EE0FCA3DC
:10255300E0FDA3E0FEA3E0FFEC33501090042EA3B4
:10256300A3A3E012087A90042E12090E90042DE022
:10257300FBE4FAF9F8A3E0FCA3E0FDA3E0FEA3E08B
:10258300FF123CC6EB2430FF900429E0FBA3E0FAE2
:10259300A3E0F9EF12062890042EE0FCA3E0FDA3CC
:1025A300E0FEA3E0FFC00790042DE0FBE4FAF9F896
:1025B300D007123CC690042E12090E900437E00493
:1025C300F090042EE0FCA3E0FDA3E0FEA3E0FFEC0B
:1025D3004D4E4F700302268E90042AE475F00112CB
:1025E30006F98088900425E0FCA3E0FDA3E0FEA3A8
:1025F300E0FF90043212090E90042DE0FBE4FAF997
:10260300F8900432E0FCA3E0FDA3E0FEA3E0FF1298
:1026130007E8AF03900436EFF0740AD39F5006E047
:102623002437F08007900436E02430F0900436E03D
:10263300FF900429E0FBA3E0FAA3E0F9EF120628D8
:10264300900432E0FCA3E0FDA3E0FEA3E0FFC0079B
:1026530090042DE0FBE4FAF9F8D0071207E89004A0
:102663003212090E900437E004F0900432E0FCA328
:10267300E0FDA3E0FEA3E0FFEC4D4E4F600D9004A0
:102683002AE475F0011206F90225FB900437E0FFF6
:102693002290039DEFF0A3EDF0A3EBF0A3E0F8A3EA
:1026A300E0F9A3E0FAA3E0FB90046CE0FCA3E0FDF7
:1026B300A3E0FEA3E0FF1207E8E47B04FAF9F812B3
:1026C30007E8C3E49FFFE49EAD07FC90039DE0147D
:1026D300700302276014700302279B147003022700
:1026E300E82403600302283A9003A4E0FB6401702A
:1026F300144398508D8BECF58D438E40D28EE4902D
:10270300038CF0800FEBB4020B4398508DD7ECF59C
:10271300D6438E1553A23F90039EE0FF7007A3E0BC
:10272300B401028030EFB4020C90039FE0B40305C0
:1027330043A240802090039EE0B4040AA3E0B405C2
:102743000543A280800F90039EE0B40608A3E0B483
:10275300070343A2C0E490038CF0D2AC229003A4FD
:10276300E0B4020B439A108DD7ECF5D6438E145385
:10277300BAFE90039EE0FFB40807A3E0B409028009
:102783000EEFB40A0A90039FE0B40B0343BA01436C
:10279300AF01E490038DF0229003A4E0FBB4020D9B
:1027A300439A108DD7ECF5D6438E14800FEBB40308
:1027B3000B43AC508DD5ECF5D443D10A53BAFD90FD
:1027C300039EE0FFB40C07A3E0B40D02800EEFB448
:1027D3000E0A90039FE0B40F0343BA0243AF08E429
:1027E30090038EF0229003A4E0FBB4020D43841007
:1027F3008DD7ECF5D6438E14800FEBB4040B4384D2
:10280300508DD3ECF5D243D1A053BAFB90039EE095
:10281300FFB41007A3E0B411028014EFB4121090B8
:10282300039FE0B41309E4F5CA75C90443BA04432A
:10283300AF10E490038FF02244046C0000000046C4
:10284300043E0000000000004604380000000000C1
:102853000042047000004401BC3E19999A44004EA2
:102863000000000044010C000000004400CD000003
:10287300000044009B000000004400A7000000008B
:10288300440041000000004401B600000000440180
:1028930002BECCCCCD4400D1BCF5C28F4400F800BD
:1028A30000000044017B00000000440138000000E8
:1028B300004401960000000042002B000042005338
:1028C30000004400F4000000004400E600000000A3
:1028D30044007F3F72699C4400733F72699C4400CB
:1028E300A10000000044005B000000005401100040
:1028F30000000000000000000000000000000000D5
:102903000000004400650000019044014500000000
:102913000044015D0000000044019A0000000044EF
:102923000108000000004100E100440094000000A1
:10293300004401A242480000440192000000004408
:102943000177000000004401B0000000004400ECE7
:10295300000000004400DD0000000044018E000080
:102963000000440186000000004400120000000043
:102973004100980042004700004201BA00004201B2
:1029830026000142009F000054002D0000000000BB
:1029930000000000000000000000000000000044F0
:1029A300007B0000000044004A000000004201AC2C
:1029B3000000440000000000004400040000000088
:1029C300440008000000000090013CE0FCA3E0FD8F
:1029D300A3E0FEA3E0FF1203AD900055E0F8A3E0EF
:1029E300F9A3E0FAA3E0FB12009D9000CD12090EBB
:1029F30090019EE0FCA3E0FDA3E0FEA3E0FF9000B6
:102A0300CDE0F8A3E0F9A3E0FAA3E0FB12009D9068
:102A1300019E12090EE4FFFE7D7A7C4490019EE044
:102A2300F8A3E0F9A3E0FAA3E0FB120334600C403F
:102A33000A90019E12091A447A0000E4FFFE7D7A8F
:102A43007CC490019EE0F8A3E0F9A3E0FAA3E0FBC5
:102A5300120334500A90019E12091AC47A0000E44A
:102A6300FBFA79C878C2900102E0FCA3E0FDA3E081
:102A7300FEA3E0FF1202979000CDE0F8A3E0F9A3D4
:102A8300E0FAA3E0FB12018EC004C005C006C00734
:102A930090019EE0FCA3E0FDA3E0FEA3E0FF900015
:102AA300F8E0F8A3E0F9A3E0FAA3E0FB12018ED06B
:102AB30003D002D001D00012009DC004C005C0069F
:102AC300C00790009BE0F8A3E0F9A3E0FAA3E0FBC2
:102AD3009000CDE0FCA3E0FDA3E0FEA3E0FF120025
:102AE30099C004C005C006C007E4FBFA79C878C2E0
:102AF3009000D1E0FCA3E0FDA3E0FEA3E0FF1202FF
:102B030097D003D002D001D00012018ED003D0029F
:102B1300D001D00012009D90010C12090E90009B71
:102B2300E0FCA3E0FDA3E0FEA3E0FF9000A71209F1
:102B33000E9000CDE0FCA3E0FDA3E0FEA3E0FF9038
:102B4300009B02090E121749900145E0F8A3E0F932
:102B5300A3E0FAA3E0FBC000C001C002C003E4FB92
:102B6300FA79C87842900192E0FCA3E0FDA3E0FE6D
:102B7300A3E0FF1202979000C9E0F8A3E0F9A3E0F5
:102B8300FAA3E0FB12018ED003D002D001D00012D1
:102B9300009D90014512090EE4FFFEFDFC900145E6
:102BA300E0F8A3E0F9A3E0FAA3E0FB120334500733
:102BB300E4FFFEFDFC800E900145E0FCA3E0FDA3D5
:102BC300E0FEA3E0FF90014512090EE4FFFE7D48FD
:102BD3007C42900145E0F8A3E0F9A3E0FAA3E0FB0F
:102BE300120334600B4009E4FFFE7D487C42800EF3
:102BF300900145E0FCA3E0FDA3E0FEA3E0FF90010C
:102C03004512090E90019AE0FCA3E0FDA3E0FEA3A8
:102C1300E0FF90015D12090EE4FBFA79C878429057
:102C230001A2E0FCA3E0FDA3E0FEA3E0FF120297F4
:102C33009000C9E0F8A3E0F9A3E0FAA3E0FB1201D6
:102C43008E900145E0F8A3E0F9A3E0FAA3E0FB12BC
:102C5300009DC004C005C006C007900114E0F8A39E
:102C6300E0F9A3E0FAA3E0FB900110E0FCA3E0FD90
:102C7300A3E0FEA3E0FF120099900177E0F8A3E040
:102C8300F9A3E0FAA3E0FB12018ED003D002D00136
:102C9300D00012009D90019A02090EBE1249253EF2
:102CA3004CCCCDBEAAAAAB3F8000003E7ADBB03E3F
:102CB300ED63383F24BC7D3F490FDBED33ECC2E7C6
:102CC300CC339200B4FF13ED547F60030204687F9A
:102CD300DB7E0F7DC97C3F022DB3C201C3947F40CD
:102CE3001E7007EDD2E794904015EFFBEEFAEDF975
:102CF300ECF87F007E007D807C3F120297D201EDCD
:102D030033EC33248430E705E4C0E0806B04FAED50
:102D1300D2E754F0C333DAFD540734002323C0E071
:102D2300CCC0E0F8EDC0E0F9EEC0E0FAEFC0E0FBA4
:102D3300E41203C8EC24FEFC90039812090E12015E
:102D43008E7B007A007980783F12009D900398E093
:102D5300B2E7CCF0A3E0CDF0A3E0CEF0A3E0CFF058
:102D6300D0E0FBD0E0FAD0E0F9D0E0F812009D907B
:102D730003981208F212029790039812090E902CEE
:102D83009E740312047D9003981208F212018ED0F0
:102D9300E0600F24AAF582E4342CF5831208FE12B6
:102DA300009D30010B7BDB7A0F79C978BF12009D40
:102DB300ED33EC336006ECA20092E7FC229003981B
:102DC300EFF0A3ECF0A3EDF043BA80900398E0C3D7
:102DD3009430506FA3E0FCA3E0FDE41203C37B0037
:102DE3007A40791C7846120297C004C005C006C019
:102DF30007900398E0C4540F75F050A42400FFE536
:102E0300F034FF8F82F583E0FCA3E0FDE41203C3FB
:102E1300D003D002D001D00012018E1203FC900324
:102E23009BEEF0A3EFF090039BE0FCA3E0FD900387
:102E330098E0F9C4540F75F050A42410FBE5F03466
:102E4300FF8073900399E0FCA3E0FDE41203C37BCE
:102E5300007A40791C7846120297C004C005C00668
:102E6300C007900398E024D0C4540F75F050A424F5
:102E730000FFE5F034FC8F82F583E0FCA3E0FDE482
:102E83001203C3D003D002D001D00012018E12036B
:102E9300FC90039BEEF0A3EFF090039BE0FCA3E018
:102EA300FD900398E0F924D0C4540F75F050A42486
:102EB30010FBE5F034FCFAE9540F75F008A42BFF7E
:102EC300E5F03A8F82F583ECF0A3EDF053BA7F225D
:102ED300900424EFF07B017A0379FFE0FFE4FCFD2B
:102EE300FE900425EBF0A3EAF0A3E9F0A312090E88
:102EF30090042C12091A00000000E47B02FAF9F88E
:102F0300900428E0FCA3E0FDA3E0FEA3E0FF12078A
:102F1300E890042CE0F8A3E0F9A3E0FAA3E0FBC3F4
:102F230012089E4003022FCB900428A3A3E0FEA324
:102F3300E024FFFBEE34FFFAA3A3A3E0FEA3E0FF2C
:102F4300C3EB9FFDEA9EFC900425E0FBA3E0FAA3FC
:102F5300E0F98D828C831205FB900430F08F828E12
:102F6300831205FBFFC007900428A3A3E0FEA3E0A0
:102F730024FFFBEE34FFFAA3A3A3E0FEA3E0FDAC22
:102F830006C3EB9DFFEA9CFE900425E0FBA3E0FA59
:102F93008F828E83D0E012063A900430E0FFEF8DEB
:102FA300828C8312063A90042CE0FCA3E0FDA3E09C
:102FB300FEA3E02401FFE43EFEE43DFDE43CFC907F
:102FC300042C12090E022EFD22900102E0FCA3E064
:102FD300FDA3E0FEA3E0FF1203FC900087EFF07B6C
:102FE300017A0079879003A27402F0E4FFFE123C99
:102FF300819000D1E0FCA3E0FDA3E0FEA3E0FF127B
:1030030003FC900052EFF07B017A0079529003A207
:103013007402F0FF7E00123C81900041E0FCA3E0CB
:10302300FDA3E0FEA3E0FF1203FC900069EFF07B39
:10303300017A0079699003A27402F07F047E001282
:103043003C819001B6E0FCA3E0FDA3E0FEA3E0FF1A
:103053001203FC90002AEFF07B017A00792A900397
:10306300A27402F07F067E00123C8190007BE0FC9C
:10307300A3E0FDA3E0FEA3E0FF1203FC900072EFC8
:10308300F07B017A0079729003A27402F07F087ECC
:1030930000123C8190004AE0FCA3E0FDA3E0FEA304
:1030A300E0FF1203FC900049EFF07B017A007949BD
:1030B3009003A27402F07F107E00023C8190039D76
:1030C300EEF0A3EFF0A3ECF0A3EDF09003A5E0FF87
:1030D300740AC39F5003740AF09003A5E004F090B0
:1030E30003A1E0FCA3E0FDA3E0FEA3E0FFE4FBFA01
:1030F300F9F8D312088840319003CC74FFF0A3741D
:103103004EF0A37487F09003A1E0FCA3E0FDA3E0DD
:10311300FEA3E0FF9003CF12090E0B7A0379A612E8
:103123000A1A9003C8EFF080389003A67420F09039
:1031330003CC74FFF0A3744EF0A37487F09003A143
:10314300E0FCA3E0FDA3E0FEA3E0FF9003CF1209A0
:103153000E7B017A0379A7120A1A9003C8EFF08055
:103163001E9003A5E0FF9003C8E0FEC39F501574B3
:10317300A62EF582E43403F5837420F09003C8E0AF
:1031830004F080DD74A62FF582E43403F583E4F0C4
:1031930090039DA3E0FFA3A3E0FD7B017A0379A63F
:1031A30002366390039DEFF0C2DEAFF9EFFFABE9A8
:1031B300EBA3CFF0A3EFF090039DE070637E037F5A
:1031C300E812066E7C007D0C12065CAB07AA06E4CF
:1031D300F9F890046CE0FCA3E0FDA3E0FEA3E0FF9C
:1031E3001207E8AC06AD07900438ECF0A3EDF075D8
:1031F300DA49E5E904F5EA85F9FA900438E0FEA333
:10320300E0FF90043FE02FFF90043EE03EFE90037A
:103213009FE02FFF90039EE03E90043EF0A3EFF06B
:1032230090039DE0640170577E037FE812066E7C75
:10323300007D0C12065CAB07AA06E4F9F890046C57
:10324300E0FCA3E0FDA3E0FEA3E0FF1207E8900487
:103253003AEEF0A3EFF075DB49E5E904F5EA85F909
:10326300FA900441E02FFF900440E03EFE90039F5C
:10327300E02FFF90039EE03E900440F0A3EFF0D2D6
:10328300DE22E490017FF0E4FD7F02123E0F900105
:103293007FE025E02461F582E43401F583EEF0A3B9
:1032A300EFF0E4FD7F01123E0F90017FE025E02463
:1032B30049F582E43401F583EEF0A3EFF090017F4A
:1032C300E004F0E0C3940540BE900167E0FEA3E094
:1032D300FF90016AE02FFF900169E03EFE900166D6
:1032E300E02FFF900165E03EFE900164E02FFF9028
:1032F3000163E03EFE900162E02FFF900161E03E3A
:10330300FE7C007D0512066E900090EEF0A3EFF0B8
:1033130090014FE0FEA3E0FF900152E02FFF9001E8
:1033230051E03EFE90014EE02FFF90014DE03EFE46
:1033330090014CE02FFF90014BE03EFE90014AE0EC
:103343002FFF900149E03EFE7C007D0512066E9042
:10335300008EEEF0A3EFF022D2C9D2B2C2B47F3214
:103363007E00120026D2B47FAE123DEAE4FF123D86
:10337300EA7F10123DEA7F40123DEA7F81123DEA67
:103383007F7F123DEA7FA1123DEA7FC8123DEA7FAB
:10339300A6123DEA7FA8123DEA7F3F123DEA7FD3A2
:1033A300123DEAE4FF123DEA7FD5123DEA7F801227
:1033B3003DEA7FD9123DEA7FF1123DEA7FDA123D01
:1033C300EA7F12123DEA7FDB123DEA7F40123DEABB
:1033D3007F20123DEA7F02123DEA7F8D123DEA7F94
:1033E30014123DEA7FA4123DEA7FA6123DEA7FAFA5
:1033F300123DEAE4FF123EB7E4FDFF02400BC0E0DA
:10340300C0F0C083C082C0D075D000C000C001C06E
:1034130002C003C004C005C006C00730D86B53D830
:10342300FEE4FF12395B90000CE004F0C39401400A
:103433000912001C121CB61229CB90000DE004F0F7
:10344300C39402400B1237EC12144490000DE4F0C5
:1034530090000EE004F0C39403401B9000E1E004ED
:10346300F0E094144008122B489000E1E4F0123984
:10347300C990000EE4F090000FE004F0C394044000
:103483000812328590000FE4F0D007D006D005D0A3
:1034930004D003D002D001D000D0D0D082D083D0CA
:1034A300F0D0E03290039012090E900394E0F8A359
:1034B300E0F9A3E0FAA3E0FB900390E0FCA3E0FDB6
:1034C300A3E0FEA3E0FF120297122CBE900390121A
:1034D300090E900394E030E759900390E0FCA3E0D9
:1034E300FDA3E0FEA3E0FFECC0E0EDC0E0EEC0E032
:1034F300EFC0E0E4FFFEFDFC900390E0F8A3E0F9E9
:10350300A3E0FAA3E0FB1203347BDB600250087AEA
:103513000F7949784080067A0F794978C0D0E0FF67
:10352300D0E0FED0E0FDD0E0FC12009D90039012AD
:10353300090E900390E0FCA3E0FDA3E0FEA3E0FFEF
:103543002290039012090E7F0A7ED77DA37C3B90C5
:103553000394E0F8A3E0F9A3E0FAA3E0FB12018EE1
:1035630090004EE0F8A3E0F9A3E0FAA3E0FB120019
:103573009DC004C005C006C0079001BCE0F8A3E0ED
:10358300F9A3E0FAA3E0FBE4FFFE7D807C3F120099
:1035930099D003D002D001D00012018EC004C0051F
:1035A300C006C007900390E0FCA3E0FDA3E0FEA3E8
:1035B300E0FF9001BCE0F8A3E0F9A3E0FAA3E0FB8D
:1035C30012018ED003D002D001D00012009D9000D2
:1035D3004E02090E787FE4F6D8FD75812002361E6F
:1035E300022305E493A3F8E493A34003F68001F2D6
:1035F30008DFF48029E493A3F85407240CC8C333E9
:10360300C4540F4420C8834004F456800146F6DFB7
:10361300E4800B010204081020408090283BE47EE4
:10362300019360BCA3FF543F30E509541FFEE493AC
:10363300A360010ECF54C025E060A840B8E493A373
:10364300FAE493A3F8E493A3C8C582C8CAC583CA9E
:10365300F0A3C8C582C8CAC583CADFE9DEE780BE56
:103663009003C9EFF0A3EDF0A3EBF0A3EAF0A3E915
:10367300F0E4A3F0FCA3F09003CBE0FBA3E0FAA3F8
:10368300E0F99003CFE0F5827583001205FB6053E8
:1036930024E09003CEF09003C9E0D3947E4006E487
:1036A300F0A3E004F09003C9E0FFA3E0FD12400B98
:1036B300E4FC9003CEE075F006A4242EF582E5F039
:1036C3003446F583E5822CF582E43583123E640C9F
:1036D300ECB406DE9003C9E02406F09003CFE004C7
:1036E300F0809422EFC4540FFE7025EF540FFCEDCD
:1036F3005401FBA804088002C333D8FC42B8EDC3CD
:10370300135401FDA804088002C333D8FC42B72236
:10371300EE64017025EF540FFEED5401FCA806087A
:103723008002C333D8FC42B5EDC3135401FDA80690
:10373300088002C333D8FC42B622EFC4540FFEBE46
:103743000224EF540FFEED5401FCA806088002C3C7
:1037530033D8FC42DFEDC3135401FDA806088002F1
:10376300C333D8FC42EE229003A8EEF0A3EFF0A3FC
:10377300EBF0A3EAF0A3E9F09003AE7406F0900334
:10378300AAE0FBA3E0FAA3E0F99003AEE0F58275AB
:103793008300E4804E9003AEE0604D14F09003A8E4
:1037A300E0FAA3E0FB7C007D0AFFAE0212066E90F6
:1037B30003ADEDF07C007D0AAF03AE0212066E90FE
:1037C30003A8EEF0A3EFF09003ADE02430FF9003E5
:1037D300AAE0FBA3E0FAA3E0F99003AEE0F582755B
:1037E3008300EF12063A80AD22E4FFFE7D487CC1E0
:1037F30090004EE0F8A3E0F9A3E0FAA3E0FB120087
:103803009D90000012090E90013CE0FCA3E0FDA393
:10381300E0FEA3E0FF1203AD9001B6E0F8A3E0F9E8
:10382300A3E0FAA3E0FB12018EE4FBFA797A784471
:10383300120297C004C005C006C007900041E0FC17
:10384300A3E0FDA3E0FEA3E0FF900000E0F8A3E007
:10385300F9A3E0FAA3E0FB12018ED003D002D0015A
:10386300D00012009D90005502090E900396EFF0D0
:10387300A3EDF0A3EBF0A3EAF0A3E9F012402F903D
:103883000396123EDEA3E0FF123EE290039CE0B4F7
:10389300010312000612402F900396E025E0440135
:1038A300FF123EE290039BE014F060207F01123D83
:1038B300B5900398E0FBA3E0FAA3E0F9EF12062822
:1038C300900399E475F0011206F980D8E4FF123DE4
:1038D300B5900398E0FBA3E0FAA3E0F9EF12062802
:1038E30002000690039DEFF0A3EDF0A3EAF0A3EB33
:1038F300F0C3EA64809480502590039FE0FEA3E028
:10390300FFC3E49FFFE49E90039FF0A3EFF09003B7
:103913009DE0FFA3E0FD7BFF7A4E7983800E900349
:103923009DE0FFA3E0FD7BFF7A4E7985123663901D
:10393300039DE02406F090039FE0FEA3E0FF7B01DC
:103943007A0379A112376A90039DE0FFA3E0FD7B20
:10395300017A0379A2023663AD07ED702090043E2D
:10396300E0FEA3E0F5EAEEF5FA900438E0FEA3E00A
:10397300FF90043FE02FF090043EE03EF0EDB401F1
:1039830020900440E0FEA3E0F5EBEEF5FB90043A53
:10399300E0FEA3E0FF900441E02FF0900440E03EFE
:1039A300F0EDB40220900442E0FEA3E0F5ECEEF566
:1039B300FC90043CE0FEA3E0FF900443E02FF09072
:1039C3000442E03EF02290015DE0F8A3E0F9A3E0B9
:1039D300FAA3E0FB90019AE0FCA3E0FDA3E0FEA3C1
:1039E300E0FF120099C004C005C006C0079000E1C3
:1039F300E0FCE41203C8D003D002D001D0001201CE
:103A03008EE4FBFA79A0784112029790015DE0F809
:103A1300A3E0F9A3E0FAA3E0FB12009D90010802E2
:103A2300090E121EDB90046C12090EE4F594F59353
:103A3300F592F591F596F595F5B2F5B1F5B4F5B3C3
:103A4300F5CAF5C9F5D8F5D9F5DEF58EF598F59AE9
:103A5300F5ACF584F5A2F5BAF5AFF589F5E9F5F915
:103A6300123E8E9003A012091A0001C2009003A413
:103A73007402F07B0D7D0CFF0226947B017A03799F
:103A83009090039B7406F0E4A3F07D3B7F681238AB
:103A93006E900390E0FEA3E0FDEDFF900450EEF086
:103AA300A3EFF0900392E0FEA3E0FDEDFF9004523C
:103AB300EEF0A3EFF0900394E0FEA3E0FDEDFF90A2
:103AC3000454EEF0A3EFF0227B017A037990900384
:103AD3009B7406F0E4A3F07D437F6812386E900375
:103AE30090E0FEA3E0FDEDFF900456EEF0A3EFF0AF
:103AF300900392E0FEA3E0FDEDFF900458EEF0A3E7
:103B0300EFF0900394E0FEA3E0FDEDFF90045AEE86
:103B1300F0A3EFF022C0E0C083C082C0D075D00014
:103B2300C007E59830E1085398FD90038CE4F0E575
:103B33009830E0205398FEAF99EFB47F129004724F
:103B4300E0FF04F0EFD39414400A75C7608005903A
:103B53000472E4F0D007D0D0D082D083D0E032EF2B
:103B630014601714601E1460271460302404703727
:103B7300C28CE4F58CF58AD28C22C28EE4F58DF5E5
:103B83008BD28E22538EEFE4F5D6F5D7438E1022D7
:103B930053D1F7E4F5D4F5D543D1082253D17FE4CB
:103BA300F5D2F5D343D180227F647E001200261222
:103BB3003E3AE4FB7D6B7F68123FA97B077D197F4B
:103BC30068123FA97B047D1A7F68123FA97B187D89
:103BD3001B7F68123FA97B107D1C7F68123FA9E4FD
:103BE300FB7D6A7F68123FA97B027D377F68023FB6
:103BF300A943BC80EF131313541FFEBE0118EF54E7
:103C030007FC7401A804088002C333D8FCFCF452F7
:103C130094EC42938019EE7016EF5407FE7401A8DA
:103C230006088002C333D8FCFEF45292EE4291EDB3
:103C3300540F42DE43DE2022EF14601714601E147B
:103C4300602514602C24047030AF8CEFFCAF8AEF36
:103C5300FD8026AF8DEFFCAF8BEFFD801CAFD6EF61
:103C6300FCAFD7EFFD8012AFD4EFFCAFD5EFFD80F3
:103C730008AFD2EFFCAFD3EFFDAF05AE0422900344
:103C83009FEBF0A3EAF0A3E9F0AD07AC0675C5021C
:103C93009003A2E0FF14F0EF60288DC4ECF5C3900D
:103CA300039FE0FBA3E475F00112070FA9F0FA12DA
:103CB30005E2F5C20DBD00010C75C65A75C6A50017
:103CC30080CE22C2D5E830E70FB2D5E4C39BFBE434
:103CD3009AFAE499F9E498F8EC30E717B2D5123C74
:103CE300FC1207E8E4C39BFBE49AFAE499F9E4982D
:103CF300F880031207E830D50DE4C39FFFE49EFE6E
:103D0300E49DFDE49CFC22EF146018146020146011
:103D13002614602C24047030E4F58AF58C4389045E
:103D2300D28C22E4F58BF58D438940D28E22E4F5C3
:103D3300D7F5D6438E1822E4F5D5F5D443D10C221A
:103D4300E4F5D3F5D243D1C02290039DEDF0AA0749
:103D5300A90312402FEA25E0FF123EE2E0FF123EE4
:103D6300E2E9B4010312000612402FAF02EF25E08F
:103D73004401FF123EE2E4FF123DB5AD0712000617
:103D8300AF0522E4FF123EB72002267F0A7E00120F
:103D9300002620021CA202E4FA33FB7D027F2812D4
:103DA3003F04A2C1E4FA33FB7D037F28123F048062
:103DB300E122AD07E4FBC2A5123FE6D2A4E4FA1266
:103DC3003FE6123FDFEB25E0FB30A4010B0AEAB428
:103DD30008EDC2A5123FE6AF05123FC5AF0322545B
:103DE300F0C4540F4410FF7E08C2C9C2C8C2B2ADAA
:103DF300061EED6014EF30E704D2B38002C2B3D2E3
:103E0300B2C2B2EF25E0FF80E6D2C922A90553BCB6
:103E1300F0EF42BC43BC40E5BC30E5FB53BCDFAF35
:103E2300BDEFFEADBEEDFFAD01A805088005CEC315
:103E330013CE13D8F9FF22E4FB7D6B7F68123FA9F1
:103E43007B077D197F68123FA9E4FB7D197F681208
:103E53003D4CEF640760097F017E0012002680E974
:103E630022F583E493FF7E08C2C9D2C8C2B2AD066D
:103E73001EED6014EF30E704D2B38002C2B3D2B2B6
:103E8300C2B2EF25E0FF80E6D2C922E47BE07A2EBE
:103E9300F9F890046CE0FCA3E0FDA3E0FEA3E0FFCF
:103EA3001207E8900470EEF0A3EFF075DC48E4F538
:103EB300D9D2DE22AC07E4FBEB24B0FF123DEA7F4C
:103EC30001123DEA7F10123DEAE4FAAF04123E69A3
:103ED3000AEAB480F60BEBB408DE22E025E0FFAD7E
:103EE300077B08AF031BEF6015ED30E704D2A48016
:103EF30002C2A4ED25E0FD123FE1C2A580E5023F29
:103F0300F590039DEFF0A3EDF0AE02AF037B017AD2
:103F130003799F12376A90039DE0FFA3E0FD7B01C5
:103F23007A0379A0023663C0E0C083C082E5AC3077
:103F3300E10853ACFD90038EE4F0E5AC30E00353AD
:103F4300ACFED082D083D0E032C0E0C083C082E533
:103F53008430E1085384FD90038FE4F0E58430E07E
:103F6300035384FED082D083D0E0327B407A4279FF
:103F73000F780090046CE0FCA3E0FDA3E0FEA3E057
:103F8300FF1207E8EF04F5F522AFF9EFFEADE9ED17
:103F9300FF900471E02FFF900470E03E8FECF5FC7E
:103FA30030DAFDC2DA2290039DEFF0AA03A90512CD
:103FB300402F123EDEAF01123EE2AF02123EE2029A
:103FC3000006AD07C2A5123FE6ED6004C2A480025D
:103FD300D2A4D2A5123FE6C2A5023FE6C2A5123F74
:103FE300E6D2A57F147E00EF1FAC0670011E4C7055
:103FF300F622123FDF30A406C2A5E4FEFF22C2A5CB
:10400300123FE67E007F0122AC07ED24B0FF123D94
:10401300EAEC123DE2EC540FFF023DEA75C5038F53
:10402300C4EEF5C375C65A75C6A50022D2A4D2A59F
:10403300123FE6C2A4123FE6C2A522000000000020
:10404300000000000000000000000000000008085D
:104053000808080808000008080000004824241283
:1040630000000000000000000000000000004848BD
:10407300487E2424247E24242400000000103C5283
:1040830052121C30505052523C1010000000222596
:1040930015150D2A585454522200000000000C122A
:1040A30012120A76252919916E00000006040402F3
:1040B300000000000000000000000000402010107D
:1040C3000808080808081010204000000204080827
:1040D300101010101010080804020000000000085F
:1040E300086B1C1C6B0808000000000000000000A7
:1040F300101010FE1010100000000000000000005F
:10410300000000000000000604040200000000009C
:104113000000007E0000000000000000000000001E
:104123000000000000000006060000000040202000
:1041330020101008080804040202000000001824DC
:104143004242424242424224180000000000101C36
:1041530010101010101010107C00000000003C42E2
:1041630042424020100804427E00000000003C420E
:1041730042402018204042423C0000000000203012
:104183003028242422FE2020F800000000007E02B4
:1041930002021E22404042221C000000000018249C
:1041A30002023A46424242443800000000007E4286
:1041B30020201010080808080800000000003C42F6
:1041C30042422418244242423C00000000001C22C8
:1041D300424242625C40402418000000000000009C
:1041E300001818000000001818000000000000006C
:1041F300000008000000000008080800000040203C
:104203001008040204081020400000000000000011
:10421300007E00007E000000000000000000020499
:1042230008102040201008040200000000003C4257
:1042330042462010101000181800000000001C2235
:104243005A55555555553A423C00000000000808A0
:10425300181414243C224242E700000000001F22ED
:1042630022221E22424242221F00000000007C4202
:1042730042010101010142221C00000000001F2233
:1042830042424242424242221F00000000003F429B
:1042930012121E12120242423F00000000003F426F
:1042A30012121E12120202020700000000003C223A
:1042B30022010101712122221C0000000000E742BB
:1042C3004242427E42424242E700000000003E0872
:1042D30008080808080808083E00000000007C10D1
:1042E300101010101010101010110F000000772282
:1042F300120A0E0A1212222277000000000007029F
:1043030002020202020202427F000000000077362E
:10431300363636362A2A2A2A6B0000000000E34686
:10432300464A4A52525262624700000000001C2271
:1043330041414141414141221C00000000003F42F4
:104343004242423E020202020700000000001C2219
:104353004141414141414D321C60000000003F4258
:1043630042423E1212222242C700000000007C4259
:1043730042020418204042423E00000000007F49F0
:1043830008080808080808081C0000000000E742A5
:1043930042424242424242423C0000000000E742A5
:1043A30042222424141418080800000000006B2A79
:1043B3002A2A2A2A36141414140000000000E742A3
:1043C3002424181818242442E70000000000772250
:1043D30022141408080808081C00000000007E21AD
:1043E30020101008040442423F0000007808080827
:1043F30008080808080808080878000000020404F0
:104403000408080810102020204040001E1010103F
:104413001010101010101010101E000018240000AF
:104423000000000000000000000000000000000089
:104433000000007E000000000000000006080000ED
:104443000000000000000000000000000000000069
:1044530000001C22302C22326C00000000000003FC
:1044630002021A26424242261A00000000000000FF
:1044730000003844020202443800000000000060DB
:1044830040407C4242424262DC00000000000000E7
:1044930000003C42427E02423C000000000000302B
:1044A30048083E08080808083E0000000000000015
:1044B30000007C22221C023C42423C00000000031C
:1044C30002023A4642424242E700000000000C0C5E
:1044D30000000E08080808083E0000000000303005
:1044E300000038202020202020221E00000000038E
:1044F300020272120A0E1222770000000000080E58
:1045030008080808080808083E000000000000002A
:1045130000007F9292929292B70000000000000088
:1045230000003B4642424242E70000000000000018
:1045330000003C42424242423C00000000000000B6
:1045430000001B26424242261A0207000000000018
:1045530000005864424242645840E00000000000FA
:104563000000774C040404041F0000000000000056
:1045730000007C42023C40423E000000000000007C
:1045830008083E0808080848300000000000000042
:104593000000634242424262DC000000000000006F
:1045A3000000772222141408080000000000000015
:1045B3000000DB91525A2A2424000000000000006E
:1045C30000006E2418181824760000000000000074
:1045D3000000E74224241818080806000000000021
:1045E30000007E22100808447E000000C020202026
:1045F300202020102020202020C000101010101098
:1046030010101010101010101010100003040404E8
:104613000404040804040404040300045A200000EE
:104623000000000000000000000000000000000087
:10463300000000002F000000000700070000147FA7
:10464300147F1400242A7F2A1200626408132300B3
:10465300364955225000000503000000001C22418A
:1046630000000041221C000014083E081400080842
:104673003E0808000000A0600000080808080800C1
:104683000060600000002010080402003E5149450C
:104693003E0000427F4000004261514946002141F3
:1046A300454B31001814127F10002745454539004A
:1046B3003C4A49493000017109050300364949491B
:1046C3003600064949291E00003636000000005610
:1046D30036000000081422410000141414141400BE
:1046E30000412214080002015109060032495951C0
:1046F3003E007C1211127C007F49494936003E413D
:10470300414122007F4141221C007F494949410028
:104713007F09090901003E4149497A007F080808D9
:104723007F0000417F4100002040413F01007F089E
:10473300142241007F40404040007F020C027F0072
:104743007F0408107F003E4141413E007F09090973
:1047530006003E4151215E007F0919294600464962
:104763004949310001017F0101003F4040403F00C2
:104773001F2040201F003F4038403F0063140814AF
:104783006300070870080700615149454300007F33
:1047930041410000552A552A55000041417F000040
:1047A30004020102040040404040400000010204B2
:1047B30000002054545478007F484444380038445F
:1047C30044442000384444487F003854545418006B
:1047D300087E0901020018A4A4A47C007F08040435
:1047E300780000447D4000004080847D00007F10FD
:1047F3002844000000417F4000007C041804780036
:104803007C0804047800384444443800FC242424FD
:10481300180018242418FC007C08040408004854D9
:1048230054542000043F444020003C4040207C007E
:104833001C2040201C003C4030403C0044281028F1
:1048430044001CA0A0A07C004464544C44141414E1
:104853001414140000000000000000000000000019
:10486300000000000000F8000000000000003330EA
:1048730000000000100C06100C06000000000000F1
:1048830000000040C07840C0784000043F04043F6B
:10489300040400007088FC08300000001820FF2189
:1048A3001E0000F008F000E018000000211C031EA9
:1048B300211E0000F00888700000001E2123241927
:1048C30027211010160E0000000000000000000059
:1048D300000000000000E0180402000000000718B8
:1048E30020400000020418E00000000040201807E8
:1048F300000000404080F0804040000202010F01B0
:10490300020200000000F0000000000101011F018D
:10491300010100000000000000000080B0700000F2
:104923000000000000000000000000000101010180
:104933000101010000000000000000003030000011
:1049430000000000000000806018040060180601E9
:1049530000000000E010080810E000000F10202005
:10496300100F00001010F8000000000020203F206E
:1049730020000000700808088870000030282422F6
:10498300213000003008888848300000182020209B
:10499300110E000000C02010F800000007042424BA
:1049A3003F240000F8088888080800001921202007
:1049B300110E0000E0108888180000000F1120205D
:1049C300110E0000380808C83808000000003F0036
:1049D3000000000070880808887000001C22212154
:1049E300221C0000E010080810E000000031222221
:1049F300110F00000000C0C00000000000003030B4
:104A03000000000000008000000000000080600043
:104A1300000000000080402010080000010204088C
:104A2300102000404040404040400004040404047F
:104A33000404000008102040800000002010080437
:104A4300020100007048080808F00000000030363A
:104A5300010000C030C828E810E00007182724230D
:104A6300140B000000C038E0000000203C230202C9
:104A730027382008F8888888700000203F202020ED
:104A8300110E00C03008080808380007182020203D
:104A930010080008F808080810E000203F20202034
:104AA300100F0008F88888E8081000203F20202312
:104AB30020180008F88888E8081000203F20000329
:104AC300000000C030080808380000071820202222
:104AD3001E020008F808000008F808203F21010121
:104AE300213F20000808F8080800000020203F208C
:104AF30020000000000808F8080800C08080807FBC
:104B030000000008F888C028180800203F2001266C
:104B130038200008F8080000000000203F20202073
:104B230020300008F8F800F8F80800203F003F00A4
:104B33003F200008F830C00008F808203F20000795
:104B4300183F00E01008080810E0000F1020202094
:104B5300100F0008F808080808F000203F210101A1
:104B6300010000E01008080810E0000F18242438A2
:104B7300504F0008F8888888887000203F20000381
:104B83000C302000708808080838000038202121E4
:104B9300221C00180808F8080818000000203F200D
:104BA30000000008F808000008F808001F20202073
:104BB300201F000878880000C83808000007380E56
:104BC300010000F80800F80008F800033C0700079C
:104BD3003C0300081868808068180820302C030301
:104BE3002C30200838C800C83808000000203F20B7
:104BF30000000010080808C83808002038262120C3
:104C0300201800000000FE020202000000007F40A6
:104C1300404000000C30C00000000000000001060E
:104C230038C00000020202FE000000004040407F46
:104C33000000000000040202020400000000000063
:104C430000000000000000000000008080808080E1
:104C530080808000020204000000000000000000C9
:104C630000000000008080808000000019242222C0
:104C7300223F2008F8008080000000003F11202020
:104C8300110E000000008080800000000E11202023
:104C9300201100000000808088F800000E11202001
:104CA300103F200000808080800000001F2222220D
:104CB300221300008080F0888888180020203F207D
:104CC3002000000000808080808000006B9494941A
:104CD30093600008F8008080800000203F210000DE
:104CE300203F2000809898000000000020203F20F3
:104CF300200000000000809898000000C0808080A1
:104D03007F000008F8000080808000203F24022DEF
:104D1300302000000808F8000000000020203F2099
:104D23002000008080808080808000203F20003F22
:104D330020003F8080008080800000203F21000011
:104D4300203F200000808080800000001F20202062
:104D5300201F00808000808000000080FFA12020B1
:104D6300110E000000008080808000000E112020C2
:104D7300A0FF80808080008080800020203F212051
:104D83000001000000808080808000003324242400
:104D9300241900008080E0808000000000001F20B4
:104DA3002000008080000000808000001F20202061
:104DB300103F20808080000080808000010E30083A
:104DC30006010080800080008080800F300C030C7F
:104DD300300F0000808000808080000020312E0E84
:104DE300312000808080000080808080818E701858
:104DF30006010000808080808080000021302C220A
:104E030021300000000000807C020200000000004E
:104E13003F404000000000FF00000000000000FFD2
:104E23000000000002027C800000000040403F00C0
:104E3300000000000601010202040400000000005B
:104E430000000073746172006C6566743A007269E5
:104E53006768743A00696620656E746572206D65D3
:104E63006E7500796573006E6F00477000476400CC
:104E73004170004164004450004444006361720087
:0A4E83002D002000256400256600C4
:00000001FF
